:020000040800F2
:1000000078060020B50100083D110008010C000829
:1000100039110008710200085111000800000000A9
:100020000000000000000000000000004511000872
:100030007502000800000000411100084911000885
:10004000CF010008CF010008CF010008CF01000850
:10005000CF010008CF010008CF010008CF01000840
:10006000CF010008CF010008CF010008CF01000830
:10007000CF010008CF010008CF010008CF01000820
:10008000CF010008CF010008CF010008CF01000810
:10009000CF010008CF010008CF010008CF01000800
:1000A000CF010008CF010008CF010008CF010008F0
:1000B000CF010008CF010008CF010008CF010008E0
:1000C000CF010008CF010008CF010008CF010008D0
:1000D000CF010008CF010008CF010008CF010008C0
:1000E000CF010008CF010008CF01000800F002F89E
:1000F00000F050F814A696E8000CB244B344DA4578
:1001000001D100F047F8BAE80F000FA696E83000DA
:10011000A5EB040504EB0607AAEB0704A7F101070A
:100120004FEA15154FEA3414A4F10104AC4201D38F
:1001300000F030F813F0010F18BFFB1A43F0010371
:1001400000F001F8DBE71847305F0000505F000067
:10015000103A24BF78C878C1FAD8520724BF30C8F3
:1001600030C144BF04680C60704700007047000055
:100170000023002400250026103A28BF78C1FBD8B0
:10018000520728BF30C148BF0B6070471FB51FBD65
:1001900010B510BD00F031F81146FFF7F7FF00F081
:1001A000D9FF00F04FF803B4FFF7F2FF03BC00F0F3
:1001B00057F800000948804709480047FEE7FEE776
:1001C000FEE7FEE7FEE7FEE7FEE7FEE7FEE7FEE707
:1001D00004480549054A064B704700004D110008C8
:1001E000ED0000087800002078060020780200204A
:1001F00078020020704770477047754600F02CF871
:10020000AE4605006946534620F00700854618B003
:1002100020B5FFF7DDFFBDE820404FF000064FF0AE
:1002200000074FF000084FF0000BAC46ACE8C009E7
:10023000ACE8C009ACE8C009ACE8C00921F007018E
:100240008D46704710B50446AFF300802046BDE8E8
:100250001040FFF7A8BF00000048704710000020C2
:1002600001491820ABBEFEE72600020070470000DF
:10027000FEE7000070470000B0B5044600F01EF92C
:10028000054640F20000C2F200000078611C18BF71
:10029000044400BF00F012F9401BA042FAD3B0BDE5
:1002A0002DE9F04F82B00E68002E00F0FD8041F283
:1002B0000042C4F20102042340F2004E904208BF03
:1002C00003234FF6FF7CC4F2010E009300240123A8
:1002D000C1F2100C4FF0000A4FF0000944E000BFDB
:1002E000012704F00C030F229A402BEA020207FABE
:1002F00003F34FEA9A051A4346F825204E6840F268
:100300000C45F202DEF8082054BF22EA080242EA55
:100310000802C4F20105CEF808202A68B30254BFCF
:1003200022EA080242EA08022A60B303DEF8042047
:1003300054BF22EA080242EA0802F303CEF804207E
:10034000DEF800204FF0010354BF22EA080242EA1F
:100350000802CEF800200E680AF1010A36FA0AF205
:1003600004F1040400F0A08003FA0AFB16EA0B086B
:10037000F1D04E68664511DC122E55D8DFE806F044
:10038000340A4448545454545454545454545454B3
:10039000544C5000D1F80C9046E000BF4FF6FF726D
:1003A000C1F2210296420FDC0022C1F211029642F4
:1003B0001AD00022C1F21202964215D00022C1F2D8
:1003C0002102964210D02FE00022C1F22202964272
:1003D0000AD00022C1F23102964205D00022C1F2B9
:1003E0003202964220D100BF8A684AB1012A14BF66
:1003F000C0F814B0C0F810B04FF0080914E000BF06
:100400004FF0040910E000BFCA6802F108090BE0D0
:100410004FF0000908E000BFCA6802F1040903E0D8
:10042000CA6802F10C0900BF22460646B8F5807F73
:1004300024BF203A043637680F25954027EA050582
:1004400009FA02F22A433260CA79D2067FF583AFF5
:1004500041F21803C4F202031A68AEF57E7642F048
:1004600001021A601A6802F001020192019A2AF050
:10047000030256F802B040F60002C4F201029042B4
:1004800010D040F60042C4F2010290423FF428AF7F
:1004900041F20002C4F20102009F904208BF02270D
:1004A0001FE700BF00271CE702B0BDE8F08F000087
:1004B000002A08BF090401617047000040F2700083
:1004C000C2F200000068704740F2000040F2700184
:1004D000C2F20000C2F2000100780A68104408600D
:1004E0007047000080B542F20000C4F202000168CB
:1004F00041F010010160032000F07AF80F2000F0B5
:1005000005F800F027F8002080BD000070B540F22B
:100510000006C2F2000640F208013278C2F2000181
:100520004FF47A730968B3FBF2F20446B1FBF2F1BF
:10053000084600F04FFB0F2C4FF0010508D838B9E2
:100540004FF0FF3021460022002500F025F87460AE
:10055000284670BD82B041F21800C4F20200016862
:10056000022241F001010160016801F001010191E5
:100570000199416841F080514160406800F080502D
:10058000009000980420C4F20100016862F31A612F
:10059000016002B07047000010B54EF60C5CCEF260
:1005A000000CDCF80030C3F3022E8EF00704042C9C
:1005B00028BF0424BEF103034FF0FF3E0EFA04F4FB
:1005C00038BF0023A14399400EFA03F39A43114325
:1005D00000F00F0200F160430901043A03F564439F
:1005E0006244002848BF02F10C03197010BD0000DE
:1005F0004EF60C51CEF200010A684FF6FF031A4086
:1006000060F30A2242F0806040F0FD70086070479D
:10061000002804BF012070472DE9F04381B042F269
:100620000008C4F202080446D8F800000D4600F0A5
:10063000070088420CD2D8F8000020F007002843B9
:10064000C8F80000D8F8000000F00700A8426CD1FC
:10065000206841F204098107C4F2020917D5410755
:1006600005D5D9F8001041F4E061C9F80010010780
:1006700005D5D9F8001041F46051C9F80010D9F837
:100680000010A26821F0F0011143C9F80010C00762
:1006900042D1D8F8000000F00700A8420CD9D8F8E1
:1006A000000020F007002843C8F80000D8F8000038
:1006B00000F00700A84238D12068410707D5D9F8D3
:1006C0000010E26821F4E0611143C9F8001000074E
:1006D00008D5D9F80000216920F4605040EAC10033
:1006E000C9F80000D9F8002002F00C00082841F2F7
:1006F0000020C0F27A0051D141F24023C2F383417D
:10070000C0F60003595CD2033CD440F60010C0F29E
:100710003D00484342E000BF606802280AD001283B
:100720002AD159F8041C890308D4012001B0BDE87E
:10073000F08300BF59F8041C8901F6D5D9F80010E0
:1007400021F003010843C9F80000FFF7B7FE064691
:1007500041F28837D9F80000616800F00C00B0EB76
:10076000810F96D0FFF7AAFE801BB842F2D9032072
:1007700001B0BDE8F08300BF59F8041C8907D4D547
:10078000DCE700BFD9F8002041F23E23C2F340422B
:10079000C0F600039A5C4843B0FBF2F0D9F80010B1
:1007A00041F22E22C1F30311C0F60002515C40F267
:1007B000080220FA01F140F20400C2F200000068D1
:1007C000C2F200021160FFF7A1FE002001B0BDE8F7
:1007D000F0830000002804BF012070472DE9F0419C
:1007E00082B00446007841F20006C007C4F2020657
:1007F0000CD0706800F00C00042840F08180306854
:10080000800303D56068002800F04E8120788007BF
:100810001BD5706810F00C0F09D0706800F00C0048
:10082000082840F08B807068C00300F18780306832
:10083000800703D52069012840F03681306861695E
:1008400020F0F80040EAC10030602078000713D49F
:10085000207840072CD4E569002D00F020817068D5
:1008600000F00C00082840F0AF80012D40F00C8112
:10087000012002B0BDE8F081A069002800F08C8062
:100880000020C4F242200121C0F88014FFF716FEB8
:10089000054600BF706A800700F1BA80FFF70EFEC0
:1008A000401B0228F6D9032002B0BDE8F08100BF4A
:1008B000F0695FEAC00808D4F06940F08050F06148
:1008C000F06900F080500090009847F20007C4F2F1
:1008D00000073868C0054DD4386840F4807038602F
:1008E000FFF7ECFD054600BF3868C00542D4FFF7AE
:1008F000E5FD401B6428F7D9032002B0BDE8F08174
:10090000706800F00C00082803D17068C0033FF540
:1009100076AF6068002800F00981B0F5A02F00F0E4
:100920001D81B0F5803F00F01D81306820F48030DB
:100930003060306820F4802017E100BF2069002873
:1009400040F20000C4F2422000F08C8001210160DE
:10095000FFF7B4FD054600BF306880073FF56EAF76
:10096000FFF7ACFD401B0228F6D9032002B0BDE81A
:10097000F08100BFE068002800F09A80052800F0B0
:10098000B180012800F0B280306A20F001003062AE
:10099000306A20F00400ACE00020C4F242200021C4
:1009A000C0F88014FFF78AFD054600BF706A800713
:1009B0007FF54EAFFFF782FD401B0228F6D90320DA
:1009C00002B0BDE8F08100BF0027C4F2422700203A
:1009D0003866FFF773FD022D05460DD130688001A2
:1009E00040F1D680FFF76AFD401B02284FF003005C
:1009F000F4D902B0BDE8F081306880014FD5FFF72F
:100A00005DFD401B02284FF00300F5D9F1E700BF60
:100A100040F20800C2F20000006844F6D351C1F26F
:100A20006201A0FB0101480A019000BF00BF0198CC
:100A3000411E002801913FF40BAF00BF0198411EF9
:100A4000002801913FF404AF00BF0198411E002827
:100A500001913FF4FDAE00BF0198411E00280191B5
:100A6000E4D1F5E600210160FFF728FD054600BF4F
:100A7000306880077FF5E9AEFFF720FD401B0228B4
:100A80004FF00300F4D9B4E77068216A00F48032B3
:100A90008A4209D1616A00F47010884204D10020B2
:100AA00002B0BDE8F08100BF012002B0BDE8F081D6
:100AB000306A20F001003062306A20F004003062B9
:100AC000FFF7FCFC054641F2883700BF306A80071B
:100AD00022D5FFF7F3FC401BB8424FF00300F5D9D5
:100AE00087E700BF306A40F004003062306A40F0AF
:100AF00001003062FFF7E2FC054641F2883700BF93
:100B0000306A800708D4FFF7D9FC401BB842F7D9F8
:100B1000032002B0BDE8F081B8F1000F3FF59BAEB5
:100B2000F06920F08050F06195E600BF306820F455
:100B300080303060306820F480203060FFF7BEFCE9
:100B4000054600BF306880037FF560AEFFF7B6FC56
:100B5000401B64284FF00300F4D94AE7306840F4A2
:100B600080203060306840F480303060FFF7A6FCB1
:100B7000054600BF306880033FF548AEFFF79EFC96
:100B8000401B6428F6D9032002B0BDE8F08100BF05
:100B9000206AB0F5803F05D17168A26821F4003168
:100BA000114371607168626A21F474111143084342
:100BB000706001203866FFF781FC044630688001D0
:100BC0003FF56DAFFFF77AFC001B02284FF00300E2
:100BD000F4D90EE7411E0020B0EB116F1CBF0120BD
:100BE00070474EF21002CEF2000251604EF62351D1
:100BF000CEF20001F0230B70072190601160704766
:100C0000FEE7000010B540F60004C4F201042046DF
:100C100020210022FFF74CFC0120FFF72DFB20468E
:100C200020210122FFF744FC7820FFF725FBBDE8D7
:100C3000104000F001B8000080B5112000F0E0F88D
:100C40007820FFF719FBB12000F0DAF8052000F05A
:100C50006DF93C2000F06AF93C2000F067F9B22001
:100C600000F0CEF8052000F061F93C2000F05EF9BC
:100C70003C2000F05BF9B32000F0C2F8052000F042
:100C800055F93C2000F052F93C2000F04FF90520C6
:100C900000F04CF93C2000F049F93C2000F046F906
:100CA000B42000F0ADF8032000F040F9C02000F0BF
:100CB000A7F8282000F03AF9082000F037F90420BE
:100CC00000F034F9C12000F09BF8C02000F02EF9AC
:100CD000C22000F095F80D2000F028F9002000F067
:100CE00025F9C32000F08CF88D2000F01FF92A2090
:100CF00000F01CF9C42000F083F88D2000F016F9F4
:100D0000EE2000F013F9C52000F07AF81A2000F068
:100D10000DF9362000F074F8C02000F007F9E0204B
:100D200000F06EF8042000F001F9222000F0FEF837
:100D3000072000F0FBF80A2000F0F8F82E2000F061
:100D4000F5F8302000F0F2F8252000F0EFF82A2026
:100D500000F0ECF8282000F0E9F8262000F0E6F892
:100D60002E2000F0E3F83A2000F0E0F8002000F038
:100D7000DDF8012000F0DAF8032000F0D7F81320A6
:100D800000F0D4F8E12000F03BF8042000F0CEF8A9
:100D9000162000F0CBF8062000F0C8F80D2000F077
:100DA000C5F82D2000F0C2F8262000F0BFF823205F
:100DB00000F0BCF8272000F0B9F8272000F0B6F8C2
:100DC000252000F0B3F82D2000F0B0F83B2000F013
:100DD000ADF8002000F0AAF8012000F0A7F80420E8
:100DE00000F0A4F8132000F0A1F83A2000F008F871
:100DF000052000F09BF82920BDE88040AFF300807B
:100E0000B0B540F60004C4F20104054620460821AE
:100E10000022FFF74DFB204610210022FFF748FB80
:100E2000EA0920464021FFF743FB204680210022AB
:100E3000FFF73EFB204680210122FFF739FBC5F377
:100E4000801220464021FFF733FB204680210022FC
:100E5000FFF72EFB204680210122FFF729FBC5F377
:100E6000401220464021FFF723FB2046802100222C
:100E7000FFF71EFB204680210122FFF719FBC5F377
:100E8000001220464021FFF713FB2046802100225C
:100E9000FFF70EFB204680210122FFF709FBC5F377
:100EA000C00220464021FFF703FB2046802100229C
:100EB000FFF7FEFA204680210122FFF7F9FAC5F379
:100EC000800220464021FFF7F3FA204680210022CD
:100ED000FFF7EEFA204680210122FFF7E9FAC5F379
:100EE000400220464021FFF7E3FA204680210022FD
:100EF000FFF7DEFA204680210122FFF7D9FA05F03C
:100F0000010220464021FFF7D3FA2046802100222B
:100F1000FFF7CEFA204680210122FFF7C9FA2046CA
:100F200008210122BDE8B040FFF7C2BAB0B540F6D3
:100F30000004C4F201040546204608210022FFF700
:100F4000B7FA204610210122FFF7B2FAEA0920463B
:100F50004021FFF7ADFA204680210022FFF7A8FAD2
:100F6000204680210122FFF7A3FAC5F38012204614
:100F70004021FFF79DFA204680210022FFF798FAD2
:100F8000204680210122FFF793FAC5F34012204644
:100F90004021FFF78DFA204680210022FFF788FAD2
:100FA000204680210122FFF783FAC5F30012204674
:100FB0004021FFF77DFA204680210022FFF778FAD2
:100FC000204680210122FFF773FAC5F3C0022046B4
:100FD0004021FFF76DFA204680210022FFF768FAD2
:100FE000204680210122FFF763FAC5F380022046E4
:100FF0004021FFF75DFA204680210022FFF758FAD2
:10100000204680210122FFF753FAC5F34002204613
:101010004021FFF74DFA204680210022FFF748FAD1
:10102000204680210122FFF743FA05F00102204605
:101030004021FFF73DFA204680210022FFF738FAD1
:10104000204680210122FFF733FA204608210122A1
:10105000BDE8B040FFF72CBAF0B581B004462A20B5
:10106000FFF7CEFE00200026FFF760FF0020FFF70D
:101070005DFF0020FFF75AFF8020FFF757FF2B206E
:10108000FFF7BEFE0020FFF751FF0020FFF74EFFE5
:101090000020FFF74BFFA020FFF748FF2C20FFF7B1
:1010A000AFFE250AE4B200BFA02700BF2846FFF725
:1010B0003DFF2046FFF73AFF013FF7D10136802E72
:1010C000F2D101B0F0BD000070B584B041F218005B
:1010D000C4F20200016840F6000441F01001016012
:1010E0000168C4F2010401F0100100910099016847
:1010F000002241F0200101600168FC2501F020017F
:10110000009100990168002641F004010160006827
:10111000FC2100F00400009000982046FFF7C8F979
:101120000120CDE901060220039069462046009582
:10113000FFF7B6F804B070BDFEE70000FEE7000060
:101140007047000070470000FFF7BEB9704700000D
:10115000FEE7000090B0FFF7C5F900240120CDE9BB
:101160000B44CDE9094406900A904FF4E0104FF487
:10117000803102250F9006A8CDE90714CDE90D5165
:10118000FFF728FB20B1EFF3108072B6FEE700BF37
:101190000F20CDE901054FF48060CDE9040401A8DA
:1011A00002210394FFF734FA20B1EFF3108072B6F6
:1011B000FEE700BFFFF788FFFFF724FD1F20FFF7C2
:1011C0004BFF00F003F800BFFEE70000B0B52A2097
:1011D000FFF716FE0020FFF7A9FE0020FFF7A6FE8E
:1011E0000020FFF7A3FE6420FFF7A0FE2B20FFF7EF
:1011F00007FE0020FFF79AFE0020FFF797FE002071
:10120000FFF794FE6420FFF791FE2C20FFF7F8FD16
:1012100041F25020C0F60000441E44F6206500BF95
:1012200014F8010FFFF782FE013DF9D1B0BD0000B7
:101230000000000000000102030406070809010283
:1012400002030405060708090A0B0C0D0E0F101007
:101250007CD584F674D66CD66CD66CD66CD674F607
:1012600074D6AC94CD76D5B7A4B5D4D5ED94CD33A2
:10127000ED96A4F5D4D6ECF5E4D5FD54B4F47CB4E5
:101280007CD67CD67CD684B67CD684B684D584B510
:10129000ACF5C4D4ED97F5D7D59650E2BBEDED9201
:1012A000CCD051E69CB38CB68CB58C94D596DCF43E
:1012B000EDB5F5D6FDD6CD979515ACF6D5959D3502
:1012C0008CD59CB49CF594F69CD5C536DCF6DCB583
:1012D000DCF6C4B3FD34AACBFDB5E4F4E554E4B4C4
:1012E000F4D6FD16A26BAAADE4B4BCF5DD36F5B8B4
:1012F000DCB3FD77CC74B4B5ACD5B4D5CCB5ED7456
:10130000FD96CCF5B4F6D556D556B534CC95D495D6
:10131000DCD6E4F5DC93E4556CF66CF66CD66CD652
:101320006CD66CD66CD66CF674F675167CD67CD6FC
:101330007CF6A4D5ACD3A4B4A5158516BCF5F514DC
:10134000D4B4B495C57674D674D674D674D67CD617
:1013500084B684D58C94ACB5D534F5B6A34DFE5582
:10136000AB4A410049229B2AF5D3F610FE70A3CB6D
:10137000F5B6ACD3D576CD34DD15E595FE37C5157C
:10138000A535BD56E595F616E5D5DD55ED76D4B413
:10139000D4B4D4B4E4F6CCF5CCB5C38EFE17E49344
:1013A000FDB6FDF7EC75E474E474DC35AAADAAADC6
:1013B000DC72C4B4BCD5BCB5CCB6D455E4B5D4B697
:1013C000CCB5B4D4BCD5CCF4FD56F576EDB6E55429
:1013D000FDD6FDD7F617E534FDF7F5D5DC73E495BA
:1013E0006CD66CD56CD66CD66CD66CD66CD66CF6CE
:1013F0006CF674F674F674D674F684B584F5AD772D
:101400007CF57CD6A4F59CF5CCF5A4F67CD674D6F8
:1014100074D674D674D674D67CF57CD4E619F59659
:10142000E5F592EA94D5953794B484D67CB67D17C9
:101430007CD68C755963F5F0FE72DD53CD34F5D64C
:10144000F5F6F615FDF6FE56FE37F636FDF6FE16F7
:10145000FE16F5B6F555DC75DC95EC95FD16E472D7
:10146000924ADCF5DCB5D473DC74DC35E456ECD69A
:10147000DC54C454C454AACDD36DC4D5BD14ACB48B
:10148000C515CC74DCD5F596F596FDD6FDB7F556A9
:10149000F595FDF6FE16FD96F536E4F4FDB5FE165F
:1014A000F5F5F5F5F554F5376CD56CD66CD66CD6EC
:1014B0006CD66CD66CD66CD66CF67C956CD56CD62E
:1014C0006CF66CF674F674F674F674F67CF674F6D4
:1014D00084D67CD674D674D674D674D674D674D6A4
:1014E0009D15D5779CF4D555B55674F67CD67CD62B
:1014F0007CB67CB684D584B67CD68494EDF6EDB605
:10150000ED91FE30F5B6E4D5E576F575FDD6ED74D2
:10151000FDD5F596DD35E515FD36E4B5D494D45505
:10152000BC12BC12D475BBB3CC96D4B5E4B4E455AC
:10153000DC55D475DC35C475CC75AC94CC549A8C20
:10154000A2ECD4309CB59CD5C4D6C4D5E4F4FDF748
:10155000F5B5FDF7F5B5DD15DCD5F4F5E4B4F4F536
:10156000ECB5ECF4ED74FE16FE36FDF5ECD5DC952D
:101570006CD66CD66CD66CD66CD66CD66CD66CD65B
:101580006CF674D56CD66CD66CF66CF66CD66CD6E4
:101590006CD66CD674D674D674D674D674D674D60B
:1015A00074D674D674D674B68515AD569D14B535FB
:1015B0009CF67CD77CD67CD69CF594B48CB584B64E
:1015C00084B5C578ED97A4F494B5934AEDD2BCF4F4
:1015D000A4F6ACD5CC95ED35F5B5ED94E513E4D591
:1015E000BC54C455CC35D434BC94A4F4B4B5CC7438
:1015F000DC75D495D474D455CC55A4B6A4B594D583
:10160000B4D6A4D484F69BD1A2ADA2CDAC53AC94F5
:10161000B4D5B4D4E4F4FDD7F575E4F5C4F3B4D48B
:10162000BCB5DC94D495CC75CC75CC33ECD6DC75DC
:10163000ECD4E494DC54D4346CD66CD66CD66CD632
:101640006CD66CD66CD66CD66CD66CD66CD66CD68A
:101650006CF66CF66CF66CF66CF66CD66CD66CD6DA
:101660006CD66CD66CD66CD66CD66CD66CD66CF64A
:101670007C957CD642AD7CD67CD674B67CB67CD6C6
:101680007CD67CD67CF57CF684D6ACD5C53694D594
:1016900094B5ACF46206AC9494D694D5BCD6E4D59B
:1016A000E4F6D495ED37F557CCB4BCB49CD4B4D49F
:1016B0009CF5A494ACD4FD36ED16D495ACB59CD570
:1016C0008CD58CB68CD68CD684D5947584D58495DF
:1016D0009C539AAE9ACDAC53D475ED35DD16BCB59E
:1016E000BCB5BCD5A4D69CD594F5A4B5ACD5B4B541
:1016F000DC96ECF6E474E455DC55D455CC55D45561
:101700006CD66CD66CD66CD66CD66CD66CD66CD6C9
:101710006CD66CD66CD66CD66CF66CF66CF66CF639
:101720006CF66CD66CD66CD66CD66CD66CD66CD689
:101730006CD66CD66CD674D66CF67D1784F67CD6D7
:101740007CD674D67CB67CD67CD67CD684D57CF60A
:101750007CF67CF684D584D58CD684D584B35A05A2
:1017600094959494BCD4D495DCB5ED759AE6E50FC8
:1017700069E3BCF3ACD49CB59CF5DD34F5F7FDD53D
:10178000ED56BCB494D58CD58CB684D584D584D58F
:1017900084D584D584B584957C958BF29A8CC411BC
:1017A000AC94C414CC95A49594B594F594B594B523
:1017B000CCF6D4B5EC95ECB5ECB5ECD4ECF6CC9518
:1017C000DCF6D475DC74DC336CF66CF664F664F627
:1017D00064F664F664F66CD66CD66CD66CD66CD6B1
:1017E0006CD66CD66CF66CF66CF66CD66CD66CD689
:1017F0006CD66CF66CF66CF66CD66CD674736CF6B4
:1018000074F674F674D674D674D674D67CB67CD658
:101810007CF67CF67CD67CD67CD684D57CD67516B8
:1018200094D49C5293F061C7E530FE11FE32FE1253
:10183000FE53FE31FE31FE31FE31FE11F612D5515E
:10184000AB8B8A456941F5D4DD97ACD6A4D58CD451
:1018500084B684B584D584D584D584D584B584B53F
:101860007CB584958B2EA2ABBC53A4959C9584D655
:1018700084B684B6ACB5CC73CC74BC74CC75E4952A
:10188000E454DC74E472D494B4D4A4D4B495C454B1
:101890006CF66CF664F664F664F664F664F66CD680
:1018A0006CD66CD66CD66CD66CD66CD66CF66CF6E8
:1018B0006CF66CD66CD66CD66CD66CF66CF66CF698
:1018C0006CD66CD66CD46CF674F674F674D674D68A
:1018D00074D674D67CD67CD69CB58CB57CD57CB5BC
:1018E0007CD684B54963F611F610F611FE32FE532C
:1018F000FE11FE31FE51FE51FE51FE51FE51FE31F0
:10190000FE31FE31FE31F651FE31FE11FE30F67031
:10191000FE11D4EFA49294D484D584D584D584D5F3
:1019200084D584B584B584D684D684B58C7492CF9E
:10193000AACC8CB684D684D67CD67CD684D594B6F4
:101940008C758CD68CD6A495BC94B4B5A4D6AC9525
:10195000C494BC74A474ACB56CF66CF664F664F60E
:1019600064F66CF66CF664F674D56CD66CD66CD6F0
:101970006CD66CD66CF66CD66CF674F56CF66CD6D0
:101980006CD66CD66CD66CF66CF66CF66CD66CD6E7
:101990006CD674F674F67CD67CD67CD67CD68C93CA
:1019A00094937CF57CD585375A26FE31FE51FE3165
:1019B000FE31FE31FE31FE31FE51FE51FE51FE512F
:1019C000FE51FE51FE51FE31FE31FE31FE51FE311F
:1019D000FE31FE31FE31FE30FE31FE32FE50EDD2E0
:1019E000A4D384D67CD484F594B5E5F894F694F623
:1019F00084D68CD6849594749A8CCC0F84957CB5BF
:101A00007CB57CB57CB584B684B684B584B584D603
:101A10008CD58CD59CB59C949CB3BC939C939BF12A
:101A20006516651664F66CF665166516651664F639
:101A300064F66CF66CF66CF66CF66CF66CF66CF59F
:101A40007475DDB76CF56CF66CF66CF66CF66CF6CE
:101A500074F674F66CD66CD674F674D674F67CD7BD
:101A600084B37CD57CD67CD684D67CD59494EDB0DA
:101A7000FE31F611BC4AFE31FE51FE31FE31FE311F
:101A8000FE31FE31FE51F610FE51FE52FE51FE3186
:101A9000FE31FE31F611FE51FE31FE31FE31FE7295
:101AA000FE51FE51FE31FE11FE1148C1ED56FDB64C
:101AB000F596FDD6F596DD75A4D49CF49CD37CB543
:101AC000930EA28E93F17CB47CB57CB57CD584D684
:101AD00084B584D684B58CD5CD379CD49CB5AC95D3
:101AE000B4749C9494B49C94651665166CF66CD68C
:101AF0006CF674B66CF664F664F66CF66CF66CF61E
:101B00006CF66CF66CF674F66D167CF56CF56CF68E
:101B10006CF66CF66CF66CF674F66CD66CD66CD60D
:101B200074F674D674F674D4EDB58CB47CD67CD6C9
:101B30007CD6ACD3F611FE31FE31FE31F611FE310A
:101B4000FE51FE31FE31FE31FE31FE31FE5169C1E2
:101B5000FE52FE52FE51FE31FE31FE31FE51F610B4
:101B6000FE31FE31FE31E4EDCBCACC09FE11FE316F
:101B7000FE31FE51FE34FE18F555FDB6FE17FE1778
:101B8000F5F7E5F88CB6849584749AACAAAC9453B6
:101B900084B584B584B58CB594B48CF48CB48CD6EF
:101BA000CD36B494AC94A4B4A4B49CB594B49CB411
:101BB000651665166CD674D66CF674D664F66CF63B
:101BC0006CF66CF66CF56CF66CF66CF66CF66CF606
:101BD0006CF6751675166CF66CF66CF66CF66CF6A3
:101BE00074F66CD66CD66CD674F674F674F67CF516
:101BF00084D57CF67CD57CF68C52FE92FE31FE318B
:101C0000FE72C4ABF651FE51FE51FE31FE31FE3183
:101C1000FE31FE31FE51FE52FE73FE52FE51FE3188
:101C2000FE31FE31FE515920FE31FE30FE31F611FB
:101C3000FE52FE31FE11B3E8FE31FE31FE12FE13FC
:101C4000FDB6ED13FDF6DCD2FE17FDF68CD684B59D
:101C50008CB59AEDA28DBB7094B594B39CD5B51696
:101C6000D576BCD4EE18D5D7C515D594DD55C4D5D9
:101C700094B494B4A4949C936516651665166CF69A
:101C80006CF664F664F66CF66CF67C729D9864F6FD
:101C90006CF66CF66CF66CF66CF6751675166CF6E2
:101CA0006CF66CF66CF66CF66CD66CD674F66CD67C
:101CB00074F674F674F67CF67CD67CF67CF5ACD3C0
:101CC000F672F651FE31FE31FE31FE31F651FE5113
:101CD000FE51FE31F630FE50FE31FE31FE51FE5116
:101CE000D50EFE52FE51FE31B3E8FE51FE50FE12FB
:101CF000FE52FE30FE31EDD0DD2DFE31FE51FE31C3
:101D0000FE31FE31FE50FE12FE12FDD2ED50BBEF51
:101D1000FDD7DD339CB584B58CB59AEDAB0ECAED1D
:101D2000A34EF5B6E595FE16FE37F5F6FE16F61748
:101D3000F5D5FDF5E5139C7394D58CB5A4B4D4D436
:101D400064F664F66CF66CF66CF66CF66CF66CF693
:101D50006CF664D66CF66CF66CF66CF66CF66CF69B
:101D60006CF6751675166CF66CF674F66CD66CD649
:101D700074F674F66CD674F674F674F67CD67CD66B
:101D80007CD67CD58493FEB3FE51FE51FE51FE31CC
:101D90006180FE51FE51FE31FE31FE31FE93FE5157
:101DA000FE51FE51FE51FE51EDCFFE51FE51FE514E
:101DB000FE31FE31FE31FE316160FE72FE51FE5297
:101DC000C46AFE51FE31FE31FE31FE31FE31FE317C
:101DD000FE31FE93F5D0ED8EBD1594F484D484B518
:101DE00084958C73A34DAB0AB36EBB8FDCF2FE16E9
:101DF000FE16FE17FE17FE17FE17FE17E556D5371F
:101E000094D594B4A4F4DD3664F664F66CF66CF6FE
:101E10006CF66CF66CF66CF66CF66CF66CF66CF6B2
:101E20006CF66CF66CF6751675166CF66CF674F648
:101E300074F674D6751675166CD66CD674F674F680
:101E400074F674F67CD67CD67CD57CB6C4AEFE51D6
:101E5000FE31FE31FE51FE51FE72FE51FE51FE3149
:101E6000FE31FE31FDF1FE51FE51FE51FE51FE519B
:101E7000FE51FE51FE51FE51FE31CBE9FE51FE51A5
:101E8000FE94F671FE51FE31FE51FE92FE31FE319E
:101E9000FE31FE31FE31FE31FE31FE3192C4F630AC
:101EA00071E3B452AC548CB4849684948BEF9AEC66
:101EB000AB0CDC51F534F596F5D5FE16FDF6F5F6CE
:101EC000EDB5FDF6E534A4F49CD4BD16B4D4BC92B3
:101ED00064F664F66CF66CF66CF66CF66CF66CF602
:101EE0006CF66CF66CF66CF66CF66CF66CF66CF6E2
:101EF0006CF674F674F674F674F674F674F674F69A
:101F000074F674F674F674F674F674F67CD67CD6B1
:101F10007CF68BCFFE72FE51FE31FE31FE51FE315A
:101F2000FE52FE51FE31FE31FE31FE31FD90FE517A
:101F3000FE51FE51FE51FE51FE51FE51FE51FE5129
:101F4000FE51D3E9FE51FE51FE31F5F0FE51FE3156
:101F5000FE51FE31FE51FE31FE31FE31FE31FE31C9
:101F6000FE52FE31FE31ED8FFE31F632A450AB70E1
:101F7000A410A41384738B2DA2CCAAECF572FDB52A
:101F8000ED74FE17FE17FDB7ED55ED55FD96EDB658
:101F9000E597F555FD95FDD76CF66CF66CF664F695
:101FA00064F66CF66CF66CF66CF66CF66CF66CF629
:101FB0006CF66CF66CF674F66CF674D674F67CF50A
:101FC0007CF684D584F574F674F674F674F674F6BB
:101FD00074F67CF67CF67CD67CD5FE53FE51FE5121
:101FE000FE31FE31FE318AC3FE51FE31FE31FE313B
:101FF000FE31FE31CC2AF650FE51FE51FE51FE510B
:10200000FE51FE51FE51FE51FE51C388FE31FE319C
:10201000FE51A326FE51FE51FE31FDF0FE51FE3170
:10202000FE31FE31FE31FE31F631FE11FE72FE311F
:10203000FE32FE2F59C3949394B3938FA2EEA2ADB8
:10204000A2ACA2ACC3ADFDD2F573F4F4F536E494C2
:10205000E4D4FDF7D491FDF6FE16F5D6FDF6FDD6D7
:102060006CF66CF66CF664F664F66CF66CF66CF670
:102070006CF66CF66CF6751674F674F66CF674F60F
:1020800074F67CF78CD5D5D6EE17FDD8A5157D1640
:102090007CF67CF674D674F674F67CF67CF674F6F0
:1020A0004A08F651FE51FE51FE31FE31FE31B3E8D1
:1020B000F651FE31FE31FE31FE31FE31BBA9F63064
:1020C000FE51FEF4FE51FE51FE51FE51FE51FE52F4
:1020D000FE51FE11FE31FE31FE516940FE51FE51AE
:1020E000FE516980FE51F5D0F610FE31FE31FE3111
:1020F000FE51FE11CC0AF5EFABA9F610F590A3AA9C
:1021000094B49CD5ED75FDD7D452AAECA2CBAB0A02
:10211000FDD2D490B4D3C494C434CC94ED35FDD75F
:10212000F575FDB6ED14FD776CF66CF664F664F6A5
:1021300064F66CF66D166CF66CF66CF66D1674F64D
:10214000751674F66D168CB694B3A4D5BCF5ED95E2
:10215000FDD6F5D6EDB7CD9784F67D1674F67516D7
:1021600075167CF67CF684D6EE13F631FE51FE51E0
:10217000FE31FE31FE31FE31FE51FE72FE31FE5166
:10218000FE51F651BB49DCCDFE31FE31F652FE5117
:10219000FE51FE51FE51FE51FE51FE31F631F63137
:1021A000FE50E54EFE31FE51FE51B346FE71FE314A
:1021B000FE519B25FE72FE31FE51FE31FDF0C3073C
:1021C000FE93FE10E50EFDD138A0DE18F576FDB6C3
:1021D000ED95ED55A3B09A8BA2CBA2CBE553ED754F
:1021E000D453DC54E535D475E495ECB5E494E4952A
:1021F0006CF66CF664F664F664F66D166D16D5969C
:1022000074F86D1674F66D166D1695379514EDF716
:10221000F5F6F5F6FDF7EDB6F5B5FE17ED76BD155D
:102220008D1685167D157D157CF584F584F594B5A0
:10223000FE5069A0FE51FE51FE31FE31FE31FE52CC
:10224000FE51FE72FE51FE51FE51FE9181A2A28707
:10225000FE31FE31FE32FE51FE5171E0FE52FE5162
:10226000FE51FE51CCCBFE51FE51FE11FE72FE51CD
:10227000FE51FE32FE718AA2FE71FE50FE31D4EC98
:10228000FE72FE31FE31FE72FE11F5D0FE30FE937D
:10229000FE12A4B1A4F3D514ACD494B57CD5AC5340
:1022A0009ACD9A8BCC10CC0FD474D453D454C4563A
:1022B000C475C474CC55DC766CF66CF66CF66CF6B2
:1022C0006CF66CF674F66D176D166CF66D166D1671
:1022D0006536A515B4F5BD36FDF6FE17FDF6FDF61F
:1022E000FE17F5B6E5B5D575BCF39CF59CB3AD7698
:1022F0009CD4E6199D157AEAF5F0FE52FE51FE5186
:10230000FE31FE31FDF1FE31F631FE73FE51FE511C
:10231000FE31EE2FB2E8DC4EFE53FE51ECAEFE3144
:10232000FE31EDAFFE72FE51FE51FE31F63079E125
:10233000FE72FE11FE51FE31FE51F5D0FE71F650D7
:10234000FE51FE71ABC7FE31FE5169C0FE72FE3117
:10235000FE31A306FE30F650EE0FD4EF9515A4948F
:10236000BCB374D484D57CD49C93926C928BA30D13
:10237000DCF3FDD5BBF2C496BC75CC54B4B5D455D2
:102380006CF66CF674F66D166D1675167516751678
:10239000751675167516751674F67CF6BD15F596D8
:1023A000F535F596FDF6FDD5FE16FDF6EE18CD34A5
:1023B000EDD5F657FDF6FE16F616EDF5CDD7A36A68
:1023C000FE12FE51FE51FE31FE31FE31ED10FE32A5
:1023D000F631FE11FE51FE51FE31F672D42EE4AFFD
:1023E000F5D2F650F4F0FE52FE31F650FE13FE50D8
:1023F000FE51FE31FE519A84FE10F651FE51FE311F
:10240000FE31F671F5F1FE92FE31FE52FE51FE51A3
:10241000FE51FE51F5F0FE11FE31BBC8FE52FE1119
:10242000FE11F651A4F484F484D684D584D584D5E1
:10243000849594948AAC8AAC9AADA30EAB8EBC7191
:10244000AC74AC95AC74DC5575166CF6CDF87CD5D7
:102450007516751675167516751675167516751624
:1024600074F67CF69CD5E474FDD7FDF6FE15F5D523
:10247000FDF5FE16F5B5FE37FE36FE36FE37FE16C6
:10248000FE37D555B535FE33FDB1FE51FE51FE3157
:10249000FE31FE31BB69FE516940AB87FE51FE51F2
:1024A000FE31FE92E4AFE4AFA308BBCA8A2579628D
:1024B0008A4282A3A286FE52FE52FE31FE50A2E65E
:1024C0009265FE50FE72FE31FE31FE50D3EADBC94A
:1024D000DC0ACBE9D50CFE51FE51FE51FE31FE3136
:1024E000BC49FE32FE11D48CFE30FE10F6118CF584
:1024F00084D684D684D58CB584D57CD58C958B0E2A
:1025000092AB926B9ACCD490F5749C739C74B45338
:102510007CF67CD6751674F674F674F674F674F65A
:1025200075167516751674F674F67CF68CF6E4D589
:10253000DC73FD55FE15ED74FD75FDD6F595FE16A3
:10254000FE36FE16FE37FE36FE37FDF7FDB6FE52AE
:10255000AB48FE50EDB0F651FE31FE529265FE13CF
:1025600089C48A83FE51FE51FE51FE739A25B3AB96
:10257000FE74FDF36920ECCFEDB0FE7079C2E5701A
:10258000FE92D4CBF650BB49D44DFE71FE31FE31E4
:10259000FE31F651FDB0FE51FE51FE51FE51FE518D
:1025A000FE51FE51FE31FE31FE318221FE32FE31FE
:1025B000FE72FE10FE509CF484D67CF68CB5E57855
:1025C00084D57CD684D684B59B919A6C926B9AED17
:1025D000C3AEB43194539C3284B58515751674F628
:1025E00074F6751674F674F674F664F6ADDB74F66C
:1025F00074F67CF685169515ACF5DCB4E434EC7411
:10260000FD34FD54FDB5FDD5FDF6FE36FDF6FE3676
:10261000F5F5F617DDB4F6116941FE50FDD1FE3136
:10262000FE31FE528A24ED2FBB4AFE73FE51FE514D
:10263000FE51FE12E4CFFE75DD0F9B07F571E4AE8F
:10264000FE14FE50FDB0ED2FFE72FE51FE91C369E7
:10265000C389FE32FE52FE31FE31F651B367FE51A0
:10266000FE51FE51FE31FE31FE51FE51FE31FE3172
:10267000FE31FE51FE11FE31F5D0FE11EDCFCCF34F
:102680009CD584D684D68CD37CF67CD684B684D56F
:102690008C9584939ACC928B92ABAAECB38EA43295
:1026A000C5768CF59CD4C494CD788CF67CF67CF6FB
:1026B0007CF67D177CF67516751675167D168CF5ED
:1026C0008D359CF5ED96FD34FCF4FD95FDB5FDB51D
:1026D000ED33FD75FD55FE16FDF6F5D6E513F61145
:1026E0009266FE50FE32FE50F611F55181C27181A4
:1026F000ED3060E0FE51FE51FE518A43ECAFED300B
:10270000A2C7EDF3FE96E4CFE612CCEEFE31DCAECE
:102710008263FE51FE72CBA9D46AED6FFE52FE3188
:10272000FE31F6719263FE51FE51DCCCD429D42ADD
:10273000D3EAD40ACBCAC368A264B347C389C389A6
:10274000FE106140FE1048A0851584B57CF57CD64E
:102750007CD684D5A475CD7A94B484F58CB59AECE6
:10276000926B928B9AECC3CFE5B6F617EE38DD95F7
:10277000EE17C575E61985167D15751674F575166F
:1027800075167D1674D58D169CF6C4D4DC75E4D40C
:10279000DC33DC92FDD5F534FD75F513F514FDB68B
:1027A000F5B5FDD6FDD4FE308226FE50F611FE10A2
:1027B000FE5192256981E4CFFDF2ECD0FE52FE512C
:1027C000FE5171A0F4AEF551FE55FED6FE95E51012
:1027D000FE34FEB66141DC6EFE95FE73EDF0CB89F2
:1027E000E54D8202FE51FE31FE3192C48222FE315D
:1027F000FE31FE51FE51FE51FE31FE31E4CCD44B90
:10280000CBEAD40BC369AAE6C3A9B3A9F5F0EDF2EC
:102810008CD584D584D57CD67CF584D6C4F5DDD71B
:10282000F5B7B4929C939C539AED924C8A8AA2CBB2
:10283000DD55F638EE16F636FE56FE56F6369D3463
:10284000851685167D167CF67D1684F5ACD58D161D
:1028500094F6AD15D474E4B5E453FD95F515ECB4D8
:10286000ECF5F534EC92FD35F554FDD6FDF4F5F0BC
:10287000ED93FE51EDD0D4ACFE31F551D4EEECEF3A
:10288000E50FE4AF8224FE72FE50F590E4CFFEB572
:10289000BCEE8A66BC2E69E672A97AA97A0679E549
:1028A000DCF1FEB6FE94C3E9FE4FFE11FE52FE318E
:1028B000FE317A018AA3FE51FE51FE51FE51FE51B6
:1028C000FE51FE51FE51FE50F650EDCFF5D0F59180
:1028D000BB69FDF1F5EF7A638CD584D684D584D6B7
:1028E00084D584D4CDB7ED76FD97FDB5FD96DD9604
:1028F00094D49B4E9A8B9A8AFE16F616FE57FE5774
:10290000FE57FE76FE76F678DDD8D5F8AD3585161D
:1029100084F5CD16ED55E597EDF7BD55C515F57563
:10292000CCD4CD35D3F2FCF3F4F4FD74FD75FD5534
:10293000FD94FDB6FDD46122FDF6FE3179E18243BE
:10294000FE31FDF48A25BC0CFE34E4B0E4D0D4CDD5
:10295000FE30FE31E4AEFE96FED7F5D5E5F57B0BF5
:10296000730C730A830BE615EDF579A4FED5F5EF2C
:10297000FE72FE92FE52FE31FE31FE118222FE31C7
:10298000FE31FE51FE51FE31FE729B04FE10FE51DF
:10299000FE93C3EAD4AECC2AA2E7CC4AD4ADEDD2A2
:1029A00084D484B584F5ACD78CD594B5A514C5353D
:1029B000FDB5E4D3FDD6F596BCB3A4B3AC329AAB67
:1029C000FDD5FE16FDF6EDB4F5F5FE17E533F6166A
:1029D000FE16FDB7BD768D369D15CD14ED54F575FB
:1029E000FDF6FDF7ED95CD55BCB5C4D4BCB4ED55A1
:1029F000FDD6E3F1BAEDFD55F4F4DC54ECF49A8A1B
:102A0000FE39FE3271A071C0FE947A06516472CA1A
:102A10008288FE75ECF1FE96FEB3FE71ECEFFE9639
:102A2000FED6E615FEB883EE6ACA7B4B8B8CDE358C
:102A3000C42EFEB6A368FE30FE52FE51FE51C48A7B
:102A4000FE31FE729283FE31FE31F5F0FE31FE71F1
:102A5000FE51FE51FE52AB27C3CBC38BECD1BBAAB8
:102A6000D44CBB8AFDF1BB8B8CF594F694F5BCD7A6
:102A70008D169D36ACF4DD35FDB6E4F5ED56F5B5B5
:102A8000FDB5C4F6ACD4E4F6ED55FE15F5B5F57418
:102A9000FD96F555ED34F575FDF6F576C55595566B
:102AA00095359D15C534F5B6FE16FE36FE16ED7647
:102AB000E4B5E495DC54ECB4ECD4FD76E453A30D1A
:102AC000BAEEE413E473A3AFA4D6B3EA71C1BC2A8F
:102AD0008203F67662675248F697FEB6FE96FED7F8
:102AE000FEF77A23C38AFE96FED7FEF8FF9BC6F94F
:102AF000E75BB67661A4FF38FED7FEF68243FE514F
:102B0000FE51FE51FE518AC3FE51F5F08A42FE503D
:102B1000FE50FE51FE51FE51FE51ED2DCC2AC3AAAE
:102B2000CBAAC3CBBBABC38BFDF1C3ABBBAAB36A10
:102B3000B534BD35E618D595ACF5D539DD77F576E4
:102B4000F555FD96FDF6FDD6FDD6ED36AB2FFD36DF
:102B5000F5B7E4F5E4F4F4F5FD95FDD6DD14F5964E
:102B6000ED75ED13ED73953595169D15C536E5B6E6
:102B7000F5B6FDB7ED35FD75F4B5EC95DC54DC33F9
:102B8000E493FD34DCB4ACF5A4F4AC51AAEDF4F359
:102B9000ACB4FE148A83FE94FE1161C472E962280B
:102BA000FF19FED6FEB6FEF7FE96FED6FF38E5B25A
:102BB000FEB6FF1872A7DF58E79BF79BF695FED786
:102BC000FEF7FED6AB88FE51FE51FE51FE51BC49C8
:102BD000FE51FE318A42AB878A636160FE31FE514D
:102BE000FE71FE71F5D0C3CACBAA8182B389BB8ABC
:102BF0009A86BBABBB8B60E1F616FE17FE17FE167E
:102C0000FDF7EDF6E556E4F5D495E4B5E4F5ED16FB
:102C1000F576FD96FDB5D4D5FE56FE57FE56DCF58D
:102C2000ED75F5D5FE98DDB6D575DD14F5949D36B8
:102C30009D35DDD5CD34D556FE16FD55FDB5FD953A
:102C4000F515ECF4F4F5F4B5D390F493DC73BD55BD
:102C500094F594F5A4F5C4B4FDB7FE12B369FE1063
:102C6000F5F1FEF6EFDDCF18AB4BFED6FED6FED665
:102C7000FED6FED6FEF7FEF7FEF7FEF7FED7FED82D
:102C8000FED8FEF8FEF7FED6FEB6FED6FE53FE5187
:102C9000FE51FE51FE51FDF0F651FE518A02F6D46E
:102CA000FEB5DD0FFED7FE71FE50FE50B369C3AA1C
:102CB000C369AAE7BB8AB36968E0BB6ABB8AC4D1AF
:102CC000EDF7FE17FE37FE37FDF6F595CD75C536E7
:102CD000AD14C4B4C475CC96D496E4B5F555F59648
:102CE000E553FE16FE57FE77FE77FE57FE77FE97FA
:102CF000FE97E616DD55FE38FDF6F5F6F5F7FDD73D
:102D0000E535ED14FDB5FDD6FD95F5F4FDF7ECB414
:102D1000ECD5ECF5E4F4D575C5579CF4951494F511
:102D2000A3F0FE31F611F611F631FEB68BECCDF3C1
:102D3000FEF7FED6FED6FEF7FEF7FED6FED6FEF76F
:102D4000FEF7FEF7FEF7FEF7FEF7FEF7FEF7FED6FC
:102D5000FED6F695FE51FE71FE51FE51FE51F5F084
:102D6000FE51F6709244F634FEB5ECAFDCEFE54E62
:102D7000FE30FE51CBEBCBAAC38A7182C38B796242
:102D8000BB6ABB6ABB69FDD7DD34F5D6FDF5FD979F
:102D9000FDF5FDF6FDF6FDB7F596A515BC95BC95C0
:102DA000CC95E476E4B4FDB7FDB6FDF7FE36FE57EC
:102DB000FE57FE76FE76FE77FE76FE56FE36CCB2E7
:102DC000E555F576DCD4D577A515BCF5F595F595E3
:102DD000FD75FE16DCD3FDB7ECF5F575F5B5F5D54B
:102DE000E535E577B4D49CF49CD3FE30FE51FE71FA
:102DF000FE31FEB6E592FEF7FEF7FED6FED6FEF7F2
:102E0000FEF7FEF7FEF7FEF7FEF7FEF7FEF7FEF71A
:102E1000FEF7FEF7FEF7FED6FEB6FED6FE51FE51D9
:102E2000FE50FE50D44AFE51FE51F6719225FE131B
:102E3000F6956981ED2F8A45FE31C3C9C3CAC3AA7D
:102E4000C3AABBCBC38BAB08BB8BCBEC6101F51525
:102E5000FDD6F574CC12FD75DC53F534F534FCF574
:102E6000ED14CC75DC55D454D475DC75DC75E49563
:102E7000FE37FE17FE37FE15FE56FE36FE16FDF631
:102E8000ED73ED34FD96E555B575AD35B5159D166B
:102E9000A556B535F5F6FDB6F535F536ECD5ECF5B8
:102EA000DD35E5D6FDF6FE15F5D6F5D7E574D4D4B7
:102EB000C4B2FE11FDD1FE51FE32FEB56982FEF7AD
:102EC000FEF7FEF7FEF7FEF7FEF7FEF7FEF7FEF75A
:102ED000FEF7FEF7FEF7FEF7FEF7FEF7FEF7FED66B
:102EE000FED6FED7FDF1FE51FE51FE51D42AFE3131
:102EF000FE31FE5181C3D46E7142EDD2FEB5AB6995
:102F0000CBCACBCACBAAC38AB328BBABBBABAB295A
:102F1000AB4AAB09E4B3F534FE16FE16FD56FD15BB
:102F2000E454D3D2FD75F595FD96DC35DC75D455AA
:102F3000CC95DC75E474F534F554F575FDD6FDF6E5
:102F4000F555ECD4F556F555F4F6ECD5F556ED9768
:102F5000AD159555953695359D15ED96F5F5ED35EF
:102F6000ECB4E4B4D4F5AD55AD55E5F6F5B6DD9663
:102F7000F5F6FDF5DDB79D16A4B2FE31ED90FE51DC
:102F8000D4EDFED6BC2CFEF7FEF7FEF7FEF7FEF7FB
:102F9000FEF7FEF7FEF7FEF7FEF7FEF7FEF7FEF789
:102FA000FEF7FEF7FEF7FED6FED6FED6FDD0FE51AA
:102FB000FE51FE51CC0AEDAFFE31FE317203928616
:102FC000E4B0EC6FFEB5AB69CBCACBCACBAABB6988
:102FD0007100BBABBB8BA2C8BBCC7985ECB4F4F55C
:102FE000ED34FDD7BB70E4B5CC13FD77DC11F515DE
:102FF000DC54DC92DC76CC95B4D5CCB5E4D7ECD4FB
:10300000DD35F555ED14F515E496E495E456E495B3
:10301000E494DCB4C4D4DD359D35953695159535ED
:103020009D34CD95FD75ECF5ECB5CCB4CD35AD1733
:103030009555B5B7A4F59D36AD15B5559D36953565
:10304000ACD4F63192C4FE518264FEB6FEB6FEF7F1
:10305000FEF7FEF7FEF7FEF7FEF7FEF7FEF7FEF7C8
:10306000FEF7FEF7FEF7FEF7FEF7FEF7FED6FED6FA
:10307000FED6FED69202FE71FE51FE51CC0AD46BF2
:10308000E56EFE3179E2F5F3DC8FDC6FFEB58A4543
:10309000C3CAC3CAB328BB6AB369D3D08182AB2881
:1030A0008A07DC74D455E475ED36D515E535B4F4EE
:1030B000CCD6D473C4B3C453E476E496FD96CC92D4
:1030C000CCB3BC54CC95EC75AD36E495F4F4ECD5AA
:1030D000E4B5DCB5C4D5A515B515C515B574D5557C
:1030E000D5F79D76FE17EE17E5F7BD14E4F6F4D696
:1030F000D4B59D368D368D36855685568D369516CA
:1031000095158D568D158D35ACF5FE7192E4F65101
:103110009306FED6FED6FED6FED6FED6FEF7FEF708
:10312000FEF7FEF7FEF7FEF7FEF7FEF7FEF7FEF7F7
:10313000FEF7FEF7FED6FED6FED6FEB6EC8EFE718C
:10314000FE51FE51CC2AC3E98A63FE5179C2E4AF35
:10315000E4D079C3FF17BBAACBCB60C0588058809E
:10316000BB8AA329AB6A8A25C433D474DC75D454D2
:10317000C494ACB4A4D5A4F5A4F5A494B496BC5658
:10318000C435DC36E4F6FD95CCB4ECB5BC74CC5556
:10319000B516DCB5DCB5ACF6ACD3CCB4A4F695353D
:1031A0009556A536AD56EDB6FDD6F616F636FE1595
:1031B000F5D5F536DCB5DCB5E515953685368536BD
:1031C00085368536853685367D56855685368535F0
:1031D000A4D4F650EDAFF651F612FEF6FEB6FEB6EA
:1031E000FEB6FED6FEF7FEF7FEF7FEF7FEF7FEF799
:1031F000FEF7FEF7FEF7FEF7FEF7FEF7FED6FED669
:10320000FED6FED6F4AFFE51FE51FE51CC2ACBE9DC
:103210008A63FE508A24E4CF5080F69571A2C3AB36
:10322000AAE8B38AC3CBBB8ABB8A9266EDB4FE36EA
:10323000E556E4B4E453CC94B4F494B3AC73AC1258
:103240009B90A34FCC53BC54BC55BC55CCD4DCD4C0
:10325000C495BC94B495AC958D15D4B5B4F58D37A3
:1032600085368536853685367D36BD56D533CD5483
:10327000C596AD54CD34ED35E4B4E496CC36BCB54A
:10328000ACF595357D367D367D367D367D36853699
:103290008536853685368D158D15FE51FE30F650F6
:1032A000F5F1FF17FEB6FEB6FEB6FED6F6F6FEF751
:1032B000FED7FEF7FEF7FEF7FEF7FEF7FEF7FED6A7
:1032C000FED6FED6FED6FED6FED6FED6EC8EFE513D
:1032D000FE51FE51D46BD44A9243FE51A2C6FEF673
:1032E000FEB5AB6AC3CAC3CABB8BBB6AAB28BB897A
:1032F000BB6960E0FDF6FE16FDD6FD96E452ECB526
:103300009BF09CD594B584D584B58CB594749B8E74
:10331000A4D6A4B5AC55BC55BC55B47594F58CF584
:103320007D3684F67D567D367D367D367D367D56FE
:103330007D36AD77AD959D3695569556DD54E515A0
:10334000D4B5B4D59D168D3685367D367D357D3523
:103350007D367D367D3685368536853685368D15C6
:103360008D15FE52FE32F631FE51DD50FED6FEB610
:10337000FEB6FED6E5B2FED6FEF6FEF7FEF7FEF787
:10338000FEF7FEF7FEF7FED6FED6FED6FED6FED63A
:10339000FED6FE95E44DF650FE51FE51DC8CF54F05
:1033A0009263FE309B47FED5A307BBCAC3AAC3CB1B
:1033B000BB8B6901B369B349B34AF594F514FD7544
:1033C000F4B4D453C4B4A473951694B5ACD784D4D0
:1033D000A4F584B484B68C74BC539CD49C749CB502
:1033E0009CD594F58CF584F57D367D167D36753645
:1033F0007536753675367D367D367D56853685361D
:103400008557B555C597ECD5AD15A5358D5685367F
:103410007D567D567D357D357D367D367D368536CE
:1034200085368536853685368D35FE12FE31FE3180
:10343000FE51FE73F6B6FEB6FEB6FEB6FEB6FF173A
:10344000FEF7FEF7FEF7FEF7FEF7FEF7FEF7FED6F5
:10345000FED6FED6FED6FEB6F6D6D510D42CF65045
:10346000FE51FE51D4ACFE329283F630C42BB389A8
:10347000CBEBBBAABBAAC3AAB327C3CB9AE871E61E
:1034800082AA8AEBFD96ECD3FD77F5B6BCD3ACD41B
:103490008CB48CD59C958CD58CD584B584D67CD4B5
:1034A000936E94738CB494D594D594D58CF68CD6B5
:1034B0007D167D16753675367536753675367D36DC
:1034C0007D367D567D367D3685368D36A517D5966B
:1034D000BD1685567D767D5685567D567D357D3566
:1034E0007D367D367D3685368536853685368D3614
:1034F0008536E4CEFE31FE31FE51FE51FE95FEB61C
:10350000FEB6FEB6FEB6FED6FED7FEF7FEF7FEF717
:10351000FEF7FEF7FED6FED6FED6FED6FEB6FEB609
:10352000FED68244BB69F630FE51FE51ED4EFE528E
:10353000A305F630C40ACBCBC3CBCBEBBBA9B34AB4
:10354000A36B722661E66A086A287AAA82EDCC0F1C
:10355000DD15ED75BCF48CF49C93A4B394B494B4D1
:103560008CB58CB48BD094718C93A3AF94B494D558
:1035700094D59CD5D5D68CD57D167D1675367536E9
:1035800075367536753675367D367D3675567D35AC
:103590007D567D567D5675767D377D567D567D569A
:1035A0007D567D567D357D567D367D367D3685361C
:1035B000853685368D36853685366961FE31FE3134
:1035C000FE31FE31FE33FEB6FEB6FEB6FEB6FEB6E8
:1035D000FED6FED6FED6FED6FED6FED6FED6FED64B
:1035E000FED6FED6FED6FEB6FEB681C2B328F65093
:1035F000FE51FE51FDF0FE31AB27FE31BB89C3AA5F
:10360000C3AAC3ABA34A69E682CB72CC7AAC6A0880
:103610006A0862087ACB7ACBD5B7EDD5B5148CF5AC
:103620008CF694D594D49C5394129C7494D48CF5B9
:103630008CD4A452E514B514CD76FDD5FDD6C5566F
:103640007D367D367CF67D16753675367536753663
:103650007D367D367D358D157D567D567D567D5664
:103660007D567D567D567D567D567D567D746D56B4
:103670007D367D367D368536853685368D17CD94FB
:103680008515ABEBFE31FE31FE31FE51FE11FF1709
:10369000FEB6FEB6FEB6FEB6FED6FED6FED6FED60A
:1036A000FED6FED6FED6FED6FED6FEF6FEB6FEB69A
:1036B000FEF671C2A2E7FE50FE51FE51FDF0FE3053
:1036C0007181FE318A44C3CBCBCB92C76A276A068D
:1036D00061E77ACB72CB72AB62296A287AAB7ACC7B
:1036E00072ABFE179D358CD494F58CF58CD58CD5AA
:1036F0008CD58CB4F5B5BD56A4D59CD5ED76DD95AD
:10370000ED75ED96FDF5ED767D367D3694F47D16FE
:1037100075367536753675367D367D3675367D5619
:103720007D567D567D567D567D567D567D567D5601
:103730007D567D567D3675537D367D367D36853694
:103740008D369D16A535BDD69575FE32D4ECFE316D
:10375000F5F0FE51FE31CBECFED6FEB6FEB6FEB65F
:10376000FED6FED6FED6FED6FED6FED6FED6FED6B9
:10377000FED6FED6FE96FE35ED3179828A24FE50C5
:10378000FE51FE51FDF0FE2F9AE7FE32696169623B
:1037900082676A076A076A076A08728A72CB7ACBFD
:1037A0007ACC622862097ACB7ACC7A8BD556BD3531
:1037B00094F48D158CF58CD58CD58CF5B4F5F5D7A6
:1037C000F5D7EE16B452FDD6FD95FDD6E4B4F575E9
:1037D000753675367536753675367D367D367D3679
:1037E00075367D367D367D367D367D3675357D5632
:1037F0007D567D567D567D577D557D567D567D5631
:103800007D557D5585368556A535E5F7E617D59561
:10381000AD55FE738A83FE51ED8FF651FE51C3AB59
:10382000FEB6FED6FEB6FEB6FED6FED6FED6FED658
:10383000FEB6FEB6FED6FED6FEB6E551E4F0E4CF07
:10384000E4CF9245BBC9F64FFE31FE31F610F64F7C
:10385000D3ECFE1171C47A47722872076A076A07AF
:103860006A276A277ACB7ACB7ACB7AEC726B7AECBE
:103870007ACC7ACC69E7DD55DDD8A5149CD48D15BA
:103880008D1594D5B536BD15E534F5B6FDF7F5942F
:10389000FDB5FDD5F515FDF67536753675367536FB
:1038A0007D367D367D367D367D36D6377D567D56E6
:1038B0007D367D367D357D567D567D567D56B65896
:1038C0007D557D567D567D567D557D5585368D368B
:1038D000EE36FE16FE16FE16F655F67171A0FE7255
:1038E000DD0DF651FE51CBECAAE8FED6FEB6FEB6D3
:1038F000FED6F6B6F6B6FEB6FEB6FEB6F5D3E4AF25
:10390000E4CFECD0E4D0E4CFE4CFDCAEFE12FE7026
:10391000FE31FE31FE31FE5189E6FE327A2671E734
:103920007208720761E7FE796A276A2761E77ACC35
:103930007AEC7ACB7ACC72CB7AEC7ACC834CDCF40E
:10394000FDF7ED95DDB7B5369CF59516A536A4F4D3
:10395000FDD7FD36ECF6C370FD54E493EC74ED1422
:103960007D367D367D567D367D367D367D367D35A0
:103970007D567D357D567D567D357D567D357D5612
:103980007D567D567D567D367D357D567D567D56E0
:103990008556855685568D56BDB6DDB5EDB5FE16F8
:1039A000FE36FE517981FE72DCCDF651FE51CBEB35
:1039B000B329FED7FE96FEB6FED6FE76ECD0ECB06E
:1039C000CB6B89E58A05B34AE4D0E4D0E4D0E4D0F7
:1039D000E4D0E48EFE11FE51FE51FE51FE31ED9019
:1039E000B3CDFE3272276A076A276A077A69F658EA
:1039F0006A2762086A0859C77ACB7ACC7ACC7ACC23
:103A00007ACC7ACC7ACB69A7E535FDB6F5B6F5B7B1
:103A1000E5B8A515F576DD14E536ECD6F4D5E3F278
:103A2000F495EC96EC74F4F67D367D367D567D5635
:103A30007D567D567D567D567D567D567D557D56EF
:103A40007D567D567D567D567D567D567D567D55DF
:103A50007D5685567D557D55855685368575E61985
:103A6000B5B5DDB6FDF7ED15F535FE118223FE5136
:103A7000C40AF651FE30C3CA7121FEB6FE56FE37A7
:103A8000FE57FE56FE158A478A2681A4ED11E4D022
:103A9000E4D0E4D0E4D0E4D0E4D0F531FE52FE51DD
:103AA000FE31FE31FE5081C4FED7FE117A27722806
:103AB00072276A077206DD956A486A286A0761C636
:103AC0007ACB7AEC7ACB7ACC7ACC7ACC72CD6A2A61
:103AD000C4B4D4D4CCD4ED56D473F535F516F576FC
:103AE000DCD4F576DBF2F493FCF4DBF4E414E43597
:103AF000A5369D147D367D567D567D567D567D5668
:103B00007D567D567D567D567D567D567D567D561D
:103B10007D567D567D567D567D56855685568556F5
:103B200085568D5685769534F5B6DDB6FDF6E4D42A
:103B3000ECD4FE73DCB0F651C40AFE50FE30CBCBA1
:103B40008A05F5D5E4F3C534CD14E4B3FD97D470FC
:103B50009246E510E4D0E4D0E4D0E4D0E4D0E4D060
:103B6000E4D0ECF1FE32F631FE31FE72FE71E4B0CB
:103B7000FE96FE327228722872277227724AB4317A
:103B80006A076A07724869E761E77AEC7ACB7ACC10
:103B90007ACB7ACC7ACBBD569555ACF5B4F4B493C8
:103BA000D4B5DD14F515DD15F574FD55F515AACE62
:103BB000EC72C350E455E414C553DE17859785367F
:103BC00085567D567D567D567D567D567D567D5655
:103BD0007D567D567D567D567D567D567D567D564D
:103BE0007D5685368536855685568D568D56955526
:103BF000CDD5E5B5FDD7F515F556FE11FE78FE31AC
:103C0000BBE9F630FE30CBEADC30E4D4BD34AD7530
:103C1000AD75D4F5E474FD76E4D0E4F0E4D0DCD006
:103C2000DCD0E4D0E4D0E4D0E4AFE4AFB3A9F63123
:103C3000FE3179E17A22DCD09349B3EB7A497228DC
:103C40006A076A28624A61C56A2762276A2762078B
:103C50006A07830B7AAC72AB6A0862077B2CA4F507
:103C600095359516951695359D359D36AD15ED9680
:103C7000FD76ECB4F495EC34E454B2CCDC13CBB365
:103C8000F5F5F6178D56855685567D567D567D562B
:103C90007D567D567D567D567D567D567D567D568C
:103CA0007D568536853685368536853685568556E4
:103CB00085568D5695369D36A556BD76C554E51666
:103CC000DD34DD0EE4B4FE51FE52F650FE30CBAAD8
:103CD000DCD3D575BD54BD76AD55A555D4D4DCB572
:103CE000E4F1E4F0DCCFE4AFE4AFE4D0E4D0E4AF5F
:103CF000E4AFE4AFDCB0FE31FE11FEB3E4EFDC90E4
:103D0000B4B382887A487227722772489BF261E5C1
:103D10006A276A2762076A276A076A487ACC6A496B
:103D20006A086145E555BCF49D158D3695169D14C0
:103D3000A5149D15ACF4BCF4ECF5F515F513E4747D
:103D4000EC74BB10AA8CC390F636F616B5B5855642
:103D500085367D567D567D567D567D5685568556D3
:103D6000855685568556855685568D368D568D5683
:103D70008D568D568D36AD75BDF78D559535C5363D
:103D8000A556A576B556C576C5348A84FD57FE324C
:103D9000FE11FE11F630D3ECC552CD96DD36ED7531
:103DA000C574AD55AD55B5159268E4D0DCCFE4AF20
:103DB000E4AFE4AFE4AFE4AFE4AFE4AFE4D0FE528D
:103DC000FE528202DC8ED44EBD168B2C7A487A28A5
:103DD0007A287248A49372276A286A286A076A07B1
:103DE0006A0769E772AA62286A07FDF8FE17FDF7FD
:103DF000DDD79535953695359D1595359535ACD5E9
:103E0000E434E4F4FD16BB0FE475DC14D435AAAC3D
:103E1000F636F616ACF395568D367D769516C5D7E3
:103E2000B575F6788D5685568556855685569556C0
:103E3000CDB5EE16E5F8AD55AD5595569556E677E8
:103E4000C5F795369D57AD14E556ED96F534FD96BC
:103E5000FDB679E3FD97E5508262FE11F610D44B72
:103E6000E575FDF7F5D6E555DDB7DDB7AD56A536F9
:103E700071E7DCF0DCCFE4AFE4AFE4AFE4AFE4AF94
:103E8000E4AFDCCFE4CFFE72A2C6DCAECCCEEE5403
:103E9000ACB2A51372277A477A477A689CF47227E6
:103EA0006A486A4882CB6A076A086A086A496A28C7
:103EB000E595F515ED34FD96FE37E5D6B5369D153D
:103EC0009D1695359D15A4D5BC94BC54E474E45559
:103ED000E454DC35D436D435F636F636FE36DE1606
:103EE000B5D79555BD55F617F616EDD7A574E69AD4
:103EF0008D568D768D56AD15ED94FE37F616F5F68A
:103F0000E5D6ADB5B555DDF6AD559D77A556CD9643
:103F1000CD56ED56F556E4B4ECF492C5E494820522
:103F2000C44BFE51F611FD90FE17ED75ED34ED56C4
:103F3000B575DDD6B575B555B4B0E4D0E4AFE4AF32
:103F4000E4AFE4AFE4AFE4AFE4AFE4CFDCAFFEB4A2
:103F5000DCAEF6D6FEB5F674AD35C59482277A464A
:103F60007A687A88B4B582A96A486A287ACB72AB33
:103F70006A286A0869E85986FDF7FE56C473DC931F
:103F8000ED75F5B6F575D595B556D576ACF4A4F5C1
:103F9000B4D5CC75E475DC54EC94D454CC35CC1445
:103FA000FE56FE58F657DE16AD76A556EE36FE15D1
:103FB000EE16EDF6FE17E6579D768D769555B5759E
:103FC000F5D5EDB5FE16FE36F617D595D5B6C5B6C0
:103FD000C5B69596A575BD34EDB5FDB5F597ECF56F
:103FE000E496ED4FE495E4D3F5F1F630FE11F5B02B
:103FF000ED95F5B6F595F594B576A576CD56E574BF
:10400000FDB5E50FE4AFE4D0E4D0E4AFE4D0E4D014
:10401000E510FE95E4EFE550FEF6FE75E5B26A2484
:10402000FEB6FEF7FEF78B4A7A677A48C4D3724829
:104030007ACA722982EB7AEB728A6A286A07CCF410
:10404000DCF5C4F4D515F596ED75EDB5ED97E5768F
:10405000CCF5E494FD56AD35B4B5DC73E476ECB53F
:10406000ECB4D455CC55CBF5F5B6FE15FE76FE5620
:10407000CDD6B595BDB6F616DD55E5B6FE17EDF60F
:10408000AD969D569D76AD96C574F5F6FE37FE57F6
:10409000F5F6FDD6F5B5F616EDF7FDF7BD96EDB6DE
:1040A000DD15FE17FDF6F5D6DCB4DC94E495DC7482
:1040B000ED51AB8AFE31F550E4D4E4D5DD35D514AD
:1040C000BD56A535D4F3ABECFEB7DCAFE4D0E4D0FD
:1040D000E4D0E4D0DC8FFED6FEF6E510ECF0FEB6C0
:1040E0007264FF17FF17F717F717FEF7FEF77A66E8
:1040F00082488247ED337A2882EB72498B0C7AEC46
:104100007ACB72486A28BBD0D473BC72E576FDD6F0
:10411000FE16FE16FE17ED54ED75E494E495F55782
:10412000FDD7F5D6E4B4ECD5ECB5DC75D455CC149C
:10413000ED35FDF6FE17FE16FE57F636D5D6E61619
:10414000FE37FE17EDF5EDF7C576AD96A596B5767B
:10415000EE37F636F636F616FE16F5B4FDF5F5B67C
:10416000F575FDD7F5B5F5D7DCF5DCF4FDF7FDD633
:10417000DCB4C515BD75E5F6E532FED9FE72A2EADE
:10418000E4B5E494D4D5C4D5B535DDB4FEB7C4F0F8
:10419000D4B0FEB6E4D0E4D0E4D0DCCFFED6FEF658
:1041A000F655E531E510FF17FF37FF37FF17FF170B
:1041B000F737F717F71772468A688247FE177207B4
:1041C000830B828A830C830C7AEC72286A28E5744C
:1041D000DCB2CBF1BB4FDC73DCB3FDF6F5F6ED548E
:1041E000FDF6F515E495F516FDB6ECF5FDD5FD7576
:1041F000ED15E495D435CC14ED36ED75E4F3FE16EB
:10420000F616EDD5F615FE37F636E596FE17FE16D0
:10421000FE37CD96BDB6CDB5FE37FE56FE56FE56E0
:10422000F5D4FDF6F5D6ED55F596FDD6FDD6F5B5EA
:10423000FDB6F576E495E4B5DCB4ED77D515DD95FE
:10424000F636CD12C48CB36CE4B5E494DC95D4B5E9
:104250007A48F716CCF0CCF0CC6FF6B5FEB6DCF0B1
:10426000FE95FEB6FED6DDB2F717FF17FF17FF3734
:10427000FF17FF17FF17FEF7FF17FEF7FED682A7FF
:104280008A688247FE17DD54832C82AB830C82EC54
:104290007AEC6A286A287207D476CBD2B30DED1473
:1042A000FD96DCD4ECF5F537DC73E4B5DC96CCB5E3
:1042B000DC95E4B5DCD4E4B5ECB6CC56D435D435D5
:1042C000FDD5F5D4FDF6ED75F595FDF5FE16F5F683
:1042D000EE37CDB5EDB5FE16FE16EE16FE77FE579F
:1042E000F5F6FE57FE56FE36ED54F5B5FDD7DCD497
:1042F000ED35DCB4F576FDD6FDD6F575ED35DCD5BE
:10430000CD55CD75EDD6F656FE57FE16FE368A888B
:10431000E4B5D4B5D4B5D4D4FF38FEF7A3ABC4CF3D
:10432000B36BF6D6FED6FED6FED6FED6FF98FF5865
:10433000F717FF17FF17FF37FF1793A7FEF6FF7852
:10434000FF57FF57FF58E5927A258A66F656CD1338
:104350008B0B8B0C830C82EC82EC72697229616589
:10436000CC35CBF5C390FD77ED16DC94F535FD55D6
:10437000ECD4CC33D475D496DC56E4D6E4F7CC55E3
:10438000C455BC55C415BC34E534FDB6FDB5FDB609
:10439000F5B5DCD4ED16F535ED14FDF8FDF6FE1699
:1043A000FE37F635FE36FE57FE37FE16FDF6FE5694
:1043B000FD54F595DCD5E4B5E4F5E4B5DC94E4D53D
:1043C000F5B5FDF5ED96DD56D5B6E5F7DDD6CD753F
:1043D000F5F6FE36F5B5FDF6EDD7BD15BCF57AA8B8
:1043E000F6F6FF17C4AFCCF07A25FEF6FED6FED760
:1043F000FF17FF17FF38FF17FF37FF38FEF6E612EB
:10440000FF37FF37FF37F737F737F737F737F73724
:10441000F737FF17FF18AC0D932A8B0B82EB82EC5A
:10442000830B82CB72697A68D436CBF4CBD4B36E6B
:10443000DC74E494DC72F535F535E4B5DC97BCD674
:10444000C4B6B4D6CC76CC55C455C475DBF5D415FA
:10445000FDB6F5B5CC30FD76F595DC92EC94F4F52F
:10446000ECB4E4D3F5F6FE16FE77FE35FE16FE1626
:10447000FE16FE36F574FDB4FD95E451E474E4B522
:10448000DC95ECF5DC74DC95E4D4EDB4FDF6DD35BB
:10449000E5D6D5D5F616E5B6DD16E535FDD6FE171B
:1044A000EDD6CD75BD13FF38F7169349CCD0C48F28
:1044B000FED7FED6FED6FEB6BCCEFF37FF37FF379F
:1044C000FF37DE54FF57FF57FF37FF37FF37F73708
:1044D000F737F737F737F737F737F717F717FEF7E5
:1044E00093CB82CA8B0C8B0C8B0C8B0C830C82CBEA
:1044F000C495A4B5CC14B370D452E4D5E555D4B565
:10450000E4F5DCB5CC96CC56D436C476C495D43517
:10451000CC55D415DC34DC34E534E4D3DC54E494F9
:10452000E4D3E454E433CB6FF4D4ED34F595F5D50E
:10453000FE16FE16FDD5FE56F615F5F5F553F514E7
:10454000E493DC31C32FECD4DCB4DC93DC94DC7476
:10455000DC95D4B5DD15E555F5F6D4F5E535F5D59D
:10456000DCB4ED15FDD6FDF7EE16C4F2FEF7FF172D
:10457000FEF7D4D0DCD0BC6DFEB5E5D3FED6FF1778
:10458000FF37F737F737FF37DDB1FF38FF38FF3830
:10459000FF37FF37F738F737F737F737F738F73898
:1045A000F737FF17F717F717F7178B498AEC8B2C9C
:1045B0008B0C830B830B82EBBCB4B4B5D435CC55D8
:1045C000AB6FF556C4F5BCD5C4B5AD15B4B6BC9645
:1045D000CC35CC35C455CC35CC36D435DC55F4F59A
:1045E000DC94F4F6EC95EC74ECB4EC94EC94F4B448
:1045F000EC93F514FDB5FDB5FDF6FDF6FDF5FDF604
:10460000F5B5F5B6FD55FD76ECB4E4D5EC95DC9446
:10461000DC94DC94DCB4FD97DC94DC95F577DCD499
:10462000D495DCB6DCB6DCB4E4D6ECF6DC94ED3440
:104630008265F6D6FF17FF17FEF7C46EDDF3FED5D1
:10464000F6D5FF17F737FF37FF37FED5BCADFF585C
:10465000FF58FF38FF38FF38FF37FF37F738F73795
:10466000F737F718F737F738F737FF17F717F71750
:10467000FEF7FF178B0B8B2C8B0C8B0C8B0C724863
:10468000C4F6D435D435CC55B495932ED514B4F5A1
:10469000ACF5BCF4B4D4CC56C476BC75C455C45582
:1046A000CC75D475F515F4D5E4B5E4B4ECB5EC945B
:1046B000F4D5F4D4F4D4E472FD75FDB6FE16F5D548
:1046C000FDD6FD34FDD5FD96ED15ECD5ECD5E4B465
:1046D000E494E4B4E4B5E4B4DC93DC96DCB5E4F44F
:1046E000F5B7E4F5E555D4F5D4D6D496D4B5DCB514
:1046F000E4B6E4B5E514FE966A04FF78FEF6FEF72C
:10470000FEF7FED7FF16FEB5FF37FF17F737FF1787
:104710009C2CFF38FF38FF38FF38FF37FF37FF3753
:10472000FF38FF38FF38F737F737F738F738F738FB
:10473000F737FF17F717F717F717F71793AB8B0D27
:104740008B0D932BC494CC75C455CC55D435CC75F6
:10475000C4F4AC73A30DCCD4BC94B4B4ACD4ACF658
:10476000B4B6BC96BC96C476D495ED35FD55FD56D1
:10477000F595FDB5F535E4D5ECF5F536ECD5DC95DC
:10478000FDF7FE16FE36FE56FDF6DD35CBD0F534D0
:10479000ECF4ECD5ECB5ECB5EC95E4B5E4B5DC7433
:1047A000D433D451F556D474D474F5B6CD35B5148C
:1047B000B515BD16D4D5D4B5DCD2FED7FF58FF58F9
:1047C000FF78FEB6F737FEF7FEF7ABABF675FF578F
:1047D000F737FF378B69FF58FF58F738FF19FF3855
:1047E000F738FF38FF37FF37FF38FF38FF38F73724
:1047F000F737F738F718F738F717FF17F717F717DE
:10480000F717F717FF17C492CC95C434CC55CC7565
:10481000CC55CC55D435CC55C456C474AC13C41047
:10482000CCF4B4F5BD15D577E577ED57F5B7FD9721
:10483000E4D4F555FD75FD75DD14DD54DD75FE1709
:10484000F5D5F5B5F5B6ED76FE16FDF7CD15D5B671
:10485000D536B576BD35DCD5E4D6D516BD55D4F5FF
:10486000E495DCB5E494ED35F5B5ED54ED75BC316A
:10487000BBD0ED51BD53B556B536B555FDD99B4AA4
:10488000FF18F737FF17FF17F717D571F6F6BCAE0D
:10489000FEF7FF37FF17FF58FED7FF17FF37FF3828
:1048A000F738FF38FF38FF38FF38FF38FF38FF3858
:1048B000FF38F738F738F738F738F718F718F738B8
:1048C000F737F717F6D6FF17F717F717F7176A0531
:1048D000D476CC54CC74CC75C435CC55CC55CC5591
:1048E000CC35CC54ACD59B0ED491B4F3B4F5EDD605
:1048F000F5F6FDB7FD96FD75FDB6ED14FD16DC74FD
:10490000F596E514C596F618FE15EE16FE18ED930D
:10491000FE16FD76FD36CD76C555BD75C595D59689
:10492000CD56BD56B535D4D5DCB5E495E4B3FE57C8
:10493000FE37F5D7D4B5CCF5C4F4B493BBB0E5736A
:10494000C575B574FF17FF17F737F717FF38FF174F
:10495000F717AC2CFF37FF37FF37FF37F7378B07D9
:10496000FF58FF37F738FF59FF59FF59FF59FF38F4
:10497000FF38FF38FF38FF38F738F738F738F7389F
:10498000F738F718F718F717EEF6CD30D4AFFF3732
:10499000F717F717F717EEB7C4B3C453C453FDD8CE
:1049A000FE15BBD1D434CC36D4F5B4F3D515BC54F4
:1049B000930FD4B2E5B7C4D6E537CCF4E4F5E4D52B
:1049C000DCF5E4D5E4D4E495F5B6FDD6FE36F5F78E
:1049D000FDF7D4F5DCF4F575CB91E473DCD3DD158C
:1049E000E515F577FDB5F595F5B6BD55C515CCD4EE
:1049F000D474DC73DC73D4D3D4B4C4D4DD77D516CB
:104A0000DCF5B3CFB34EAB4DB34DFF59F6F6F6F62A
:104A1000FEF6A44CFEF7FF17FF37FF17F737FF37F7
:104A2000FF37FF78FF79FF57FF37FF37F738FF5918
:104A3000FF59FF59F738FF38FF38FF38FF38F7388C
:104A4000F738F738F738F738F738F718F718F7174F
:104A5000CD50CCF0BBECFF17F717F717F717FF3760
:104A6000932BABF1B4B3AD14B4F4C411DCD3CBF1DC
:104A7000BBF1B473B513DD56B433932EC4B3C4B6CF
:104A8000BC96B4D6AD55AD35B535B535C515D4B430
:104A9000F596F575E4B2F556CD35CCF5E4B4E4B54C
:104AA000ECB5DC53CC11CC31FDB8ECF5DC73CC7239
:104AB000D452C411B534B576B576B575BD95AD553E
:104AC000A5969D759D759D969DB6A576AD35AD75E2
:104AD0006226F717DE33F6F6F6B6FFB9FF17FF3793
:104AE000D530FF37FF37FF37FF37FF38FF38FF3844
:104AF000FF38FF38FF38FF38FF38FF38F738FF3806
:104B0000FF38FF38F738F738F737F737F737F73820
:104B1000F738F718F717C510D510CCF08A66FF17CD
:104B2000F737F737F717FF18FEF8B554A535D575E1
:104B30009D75B4F5BC55B3F2A32EB3D1B3B0ED5609
:104B4000E555AB8FAB90C4B4BC96AD15A535A53576
:104B5000B4F5BCF5B515C4D5ECF5ECD4EC94C5555D
:104B6000AD96B556CCD4DC94E494C3B0C3B0E4D5D0
:104B7000ED35ED14FE17FDF6F616EDD7BD74BD75D7
:104B8000AD95ADB6A5979D96A5969D969D769D965D
:104B90009D969D979D96AD96FEF7EEF6CCEFFF178E
:104BA000FF17FF17FEF79329FF37FF37FF37FF3750
:104BB000FF37F738FF38FF38FF38FF38FF38FF3846
:104BC000FF38F738F738F738F738F738F738F73865
:104BD000F737F737F737F738F738F717FF38D530A3
:104BE000D510D51071C3F737F737F737F737F71800
:104BF000F6F7C5B5AD769D75BCF3A555ACF4ACD54F
:104C0000B414A30FAB4FB3D1A2EDED76A32CB38FA9
:104C1000BC74A515A5359D35B4D5D495D4B4D4D5DB
:104C2000ECD5F514ED35BD56AD95DE37A492BDB685
:104C3000CC94DCB5DCB5DCD4DCF3E554F5B5FE177B
:104C4000EDD5F637F616DE16B5B6DDF7AD75A597D8
:104C5000A597CDD7DE389D969D969DB6A596B57342
:104C6000FF37EE75CD11FF17FF37F6B6FE96FF79C9
:104C7000FF37FF17FED6F737F737F737F737F7372E
:104C8000F738F738F738FF38FF38F738F738F7389C
:104C9000F738F738F738F738F737F737F737F7389F
:104CA000F738F718DD72D511CD10CCD0AC0BF73832
:104CB000F738F738F738FF17F717C553AD77A575ED
:104CC0009576A472ACF3BD15BC95C434C433A30E61
:104CD000B36FAB0DAB0DCBD0CBF1BC93A4F5A4F56A
:104CE000AC94C4B5D494DCD5E535F555AB2DD5746D
:104CF000B596A576ADD6B596B535DD55D515CD7538
:104D0000CD34CCF3DD95D617DDD6EDF6F616F616D6
:104D1000CD95EDD6EE16C5F79DB69DB69DD79DB641
:104D2000A5B6A596AD95E6B6FF174960D5B2FF3793
:104D30008328FF38FF17FF58FF17FF58FF59F73830
:104D4000F757F737F737F737F738F718FF37F737E9
:104D5000F737F737F737F738F738F737F737F737E1
:104D6000F737F737F737F717FF18CD51D531D5118A
:104D7000CD10DD11F737FF37F738F738F738F73848
:104D8000F717AC2EEE18AD74A5759D75B535BD152C
:104D9000B556AD55B535B494C454BBF1A32EAB6E26
:104DA000DCD1F532BB8FB36FBB8FED76D4D4DCD5BD
:104DB000BD56BD75C5D5E637C595E657DDF6EE3768
:104DC000EE57FE36F634F637E616BD75B5D7AD9517
:104DD000C5B7F5D6FE17F5F6F616C5F7D5D795F68D
:104DE0009DB69DB69DB79DB6A5B69DB6B595FF5827
:104DF000F717A34AFF38FEF7FF37F757FF58F6F6C5
:104E0000FF58FF58FF59FF58F757F737F737F7376D
:104E1000F6D6FF78FF37F737F737F737F737F73832
:104E2000F737F737F737F737F737F737F737F71732
:104E3000FF17CD30D531D511CD10C44DFF57F73701
:104E4000F738F738F738F738F717FF17FE78BDD679
:104E50009D969D969DB6A596C5F7B594ED97E57779
:104E6000C494C455CC55C455A30EA2ECC3EFBB8F5C
:104E7000B36EFD35ED35D494BDB6F616DE57EDD5DF
:104E8000FE56FE56F5F6F5D6EDB5EDB6EDB5F5F6F2
:104E9000DE37A5B79DB69DB7A5B6D5B6C595CD7677
:104EA000ED55C5D69DD79DD79DB69DB69DB79DD7CF
:104EB0009DB7B5B66A67F6F6DDD2FEF79BEBFF58F5
:104EC000FF37FF37CDB1FF58FF58FF58FF58FF3865
:104ED000FF38F737F737F737B44DFF37F737F7377E
:104EE000F737F737E5F3FEF7FF37F737F737F737D9
:104EF000F737F737F718FF18FF18D531D531D51127
:104F0000D510EE34F738F738F738F738F738F73880
:104F1000F717F6F7FE97EE17CDF6A5D6AD75ADB639
:104F2000B595D5F7BD96EDD8EDD6EDD8D515E516E6
:104F3000C474C4339ACCBB6ECBCEECB3E4B4E4D52A
:104F4000ED35EDD6F636FE76FE36F5F6F5B6F59687
:104F5000EDD7FDF5BD96E637A5B69DB79D969DB7F5
:104F6000C637BDB7ADF7D5D7D5D6A5D69DD79DD772
:104F70009DB69DB69DB79DD79DB79DD6FF19B4AE82
:104F8000FF589C0BFF17FF37FF38FF58F717FF58E4
:104F9000FF58FF58FF58FF38FF38F737F737F73714
:104FA0008286F757F737F737F737FF37D551FEF7D0
:104FB000FF37F737F737F737F737F737F718FF18AF
:104FC000D5D3D531D531D511D510FF58FF38F738A5
:104FD000F738F738F738F738F717F71769E4F65660
:104FE000F616EE57FDF7E5F6D5B5F617F617FE36C9
:104FF000FE16F5F6F5F6ED56C455BC54A3B0A30E57
:10500000C3D0F554D473D475F575B5B5B5B6CDB672
:10501000F637DD95F556E556DD55D5B5C5D6ADF770
:1050200095D795B695B7DEDAD6379DD79DD79DB67D
:1050300095F79DD69DD69DD69DB69DB69DB69DD71E
:10504000A5B6D5F782C8F717FF17FF17FF17FEB6EB
:10505000FF38FF38FF38FF38FF38FF58FF37FF377A
:10506000F737F738FF18FF18FEF7F738F737F73834
:10507000F738F6F6D510FF38F737F737F737F73741
:10508000F737F737F718EF17CD31D531D531D5319F
:10509000AC0BFF58FF38F738F738F738F738F738E0
:1050A000F717F717FF38EE14D534E596F635F616F0
:1050B000FE36F5F6F5F7FDD5ED74EDB6FDD7DCB5AA
:1050C000CC35CC55C454B3D29AEDBB8EECF4E4F499
:1050D000C597AD77B595D5B7DE16ED95ED75E59528
:1050E000F555CDB6A5D895F795B78DB68DB79DB7C3
:1050F00095D795D795D795F59DD69DD69DD69DD616
:105100009DB69DB6A5B6A5B652464120F716F7370F
:10511000C4AEFF38FF17F758FF58FF58FF38FF5845
:10512000FF58FF37F737F737F737F738FF37FF17ED
:10513000FF79F738F737F738F738D591DD10FF9951
:10514000FF38F737F737F737F737F737F718FF38FC
:10515000D511D531D531DD11FF78FF38FF38F7385B
:10516000F738F737FF38F738F717F717F6B6FE3680
:10517000D4B5D4B4D4B5DCF3DCF4ED95F596ED34C8
:10518000F5D6E535E4F5DC75D435D455CC75CC547D
:105190009AEE9B0DE4D3D4729D76CDB7EE16F6153C
:1051A000CD75BD97CD54F576F5B6E5F5DDF785B649
:1051B0008DB68DB695D695D695D695D795D795D7E4
:1051C00095D795D79DD69DD69DD69DD695D5BD71A3
:1051D000FEF6FEF7F717FF78FF17FF79FF57FF3846
:1051E000FF38FF38FF38FF38FF38F737F737F73722
:1051F000F737F737F737FF18FF38FF37FF17FF1874
:10520000F717CD30DD31FF78FF18F737F737F7376D
:10521000F737F737F737F6F7D511D531D531BCCE9B
:10522000FF57F737FF38FF38FF37FF37FF38F738BA
:10523000F717F717F717A32ADC94DCB5DCB5DCB554
:10524000E4B5FD77DCB5D475CC96CC95D455DC545B
:10525000D454D474CC54CC55CC549B0DAB4DD3EF1B
:10526000A595D5F6ED75ED75D554AD769DB7ADB771
:10527000ADB7EDD595D68DB695D68DB68DD695D6DE
:1052800095D695D695D695D695D69DD79DD69DD6AD
:105290009DD5ADB6FF5AFF38FED6F717FF177AC671
:1052A000FED6FF38FF38FF38FF38FF38FF37F737B3
:1052B000F737F737F737F737F737F738F717FF18B4
:1052C000FF17FF38F737FF17FF17CD31D511FF173D
:1052D000F718F737F737F737FF17FF17F737EDF4FA
:1052E000D531D531D530FF37FF58F738FF38FF3883
:1052F000FF38FF38FF38F738F738F737F717EE354C
:10530000CC10ED15DCB5DCB5E495DC94DC95D496D9
:10531000D496D495ECD5E4F5ECF5E4B5DC95DCD584
:10532000E515D494928CAB4E9D97D637C576AD9645
:10533000DDB5A5D68DF795D695D795D795F78DD6AA
:1053400095D68DB695D695D695D695D695D695D62D
:105350009DD69DD69DD69DD7CE57F6F6F7176A04F3
:10536000FF17F717F717EEF6FF38FF58FF38FF382B
:10537000FF38FF38FF37F737F737F737F737F737A3
:10538000F737F738F717F6F7FF17FF38F737FF1734
:10539000F717CD31D511FF58F718F737F737F7372B
:1053A000FF17FF17F757D531D531D511FF38FF5803
:1053B000FF58FF38FF38FF38FF38FF38FF38F7381D
:1053C000F738F737F717FF17B30CFD55CBEFDC7144
:1053D000F576FD76E4B4DC95D495CC53FE37F5F63E
:1053E000FDF6FDB5F5B6F595FDD5E534DCF4C3F174
:1053F0008DB7ADB7BDD695B6DE1795B695B695D631
:105400008DD68DD68DD68DD68DD68DD695D695D674
:1054100095D6A6389DD695D69DD69DD79DD7BDD578
:10542000FF18FF18FEF7FF18FF18F737FEF7FF17F2
:10543000FF38FF38F738F738F737F737F737F737E8
:10544000F737F737F737F737F737F718F717FF1743
:10545000FF17F738F737F737FF37CD31D4F0FF585C
:10546000F717F737F737F737FF17FF17FF37D5313C
:10547000D531CD10FF58FF58FF37FF38FF38FF38C0
:10548000FF38FF38F738F738F738FF17F717EF56B8
:10549000DCB3D411EC93D3D0C34EC3CFED15D49469
:1054A000D494ED75D4B2F5B6FE18FDB6FE16FE1610
:1054B000FE16FDF5F576DCB485D78DD68DD68DD765
:1054C00095D795B695B68DD68DD68DD68DD68DF6CB
:1054D0008DD695D695D695D795D795F695F69DF711
:1054E0009DD79DD7B5F6FF18F6F7F6F79369FF1825
:1054F000FF18FF177AC7FF58FF37FF38F738F7381C
:10550000F737F737F737F737F737F737F737F7372B
:10551000F737F718F717FF17D5B2F738F737F73718
:10552000FF38CD30D4F0FF58F717F737F737F73794
:10553000FF17FF17FF37DD31CD51FF17FF58FF5819
:10554000FF37FF38F738F738FF38FF38F738F738C4
:10555000F738FF17F717F737D532ECB4ECB4E4534C
:10556000C36EB34EB34ECC33D494D4D6D4D5DCD69C
:10557000D494FDB8DC94DC95DC95E4F5E535F5765E
:105580008DD68DD68DD68DD68DD68DD68DD68DD603
:105590008DD68DD68DD68DF695D695F795F695D672
:1055A00095D695F69DD69DD79DD795B4FF39F7171B
:1055B000F717F717FF79F717FF17FF17F6D6FF183A
:1055C000FF18FF18F738F738F737F737F738F718B5
:1055D000F718F737F737F737F737F718F717F717D9
:1055E0007A46F738F737FF17F717CD51D4F0FF3762
:1055F000F717F737FF37FF17FF17FF17FF17DD52B2
:10560000FEF7FF58FF58FF38FF38FF38FF38F738EC
:10561000F738F738F738F737F737F737F737F73717
:10562000F717F515ECD4ECD4DCD5D475B370AAED2E
:10563000AB4EFE54BBEEF5D3DCB7D474D475D47541
:10564000D455D455D475D4558DD68DD68DD68DD60A
:105650008DD68DD68DD68DD68DF78DB58DF68DF6F2
:1056600095D795F795D78DF69DB59DD69DF69DD787
:105670009DF6DE14F717F717F717F6D6FF58F7174A
:10568000F717FF38F737F718FF17FF18FF18FF183D
:10569000FF17F737F738F718F718F738F738F737ED
:1056A000F737F718F717F717FED7FF58FF37FF1729
:1056B000FF17FEF7D511FF17FF37F737FF17FF1753
:1056C000F717F6F7FF178307FF57FF38FF38FF3844
:1056D000FF38FF38FF38F738F738F738F738F7185A
:1056E000F718F737F737F717F737AB2BED35F535F1
:1056F000FDB7DC74DC76D455C3D2B30FB34EBB8E8A
:10570000CC0FFE14D473D455D454CC34DC54D4749C
:105710008DD68DD68DD68DD68DD68DD68DD68DF651
:105720008DF6C5F695D695F795F795F795F79E18EA
:10573000BDD6ADB69DD69DF6A532FF17F717F71764
:10574000F7177AC7FF37F717F71793AAF737FF3816
:10575000F6D7FF17FF58FF17FF17F717F738F71897
:10576000F718F738F738F737F737F718F717F71745
:10577000FF17CD10FF18BD30FF17FEF7CD11FF1733
:10578000F717F737FF37FF17FF17FF17EE13FF570E
:10579000FF57FF38FF18FF38FF38FF38FF38F7385A
:1057A000F738F738F738F718F718F737F737F717E4
:1057B000F7175922F535FDD6DCF3ECF5F596ED1427
:1057C000DC75D495DC96CC32BBEFA2EDA30EA32CF6
:1057D000ED53DCB1D411F5358DD68DD68DD68DF641
:1057E00085F68DF68DF695D695D695F795F795F7BE
:1057F00095F795F795F69DF69DF69DF69DF6A5D63F
:10580000F6F7F717F717F717F6F7FF17FF18FF1850
:10581000FF18F6B6F6D7CD31CD11CCF1CCF1CCF1E5
:10582000CCF0C551F6D7F718F718F738F737F73730
:10583000F718F718F738F738F717BC0CEE14D5D26D
:10584000FF37FF17EE55FF38FF37F737FF17FF1702
:10585000FF17FF17FF17FF38FF38FF38FF38FF38F3
:10586000FF38FF38F738F738F738F738F718FF18E8
:10587000FF18FF17FF17F737F717FEF8ED35FE563D
:10588000FE36F556F556FDB6DCD5DCB4D495D4B568
:10589000D4D5CCF4E4F5C3F1B32FB36EBB6EBB4EDD
:1058A0008DD78DD78DD68DD68DD68DF68DF78DD69D
:1058B00095F795F695F795F795F795F795F69DF683
:1058C0009DF69DF69DF6BDF5FF38F717F717F7170C
:1058D000FF18FF59F6F7FF18F6F7F6D7D512CCF2F6
:1058E000CD12CCF1CCF1CCF1CCF1CCF1CCF1BC8F20
:1058F000FF39F738F737F737F718F718F738F73869
:10590000F737C4EFD530E592FF17F737FF17EE549E
:10591000FF37F737FF17FF17FF17A44CFF38FF3982
:10592000FF38FF38FF38FF38FF38FF38F738F738CF
:10593000F738F738F718FF18FF18FF17FF17F73772
:10594000F717EEF7DCF2ED54ED75FDF6FDD7ED350A
:10595000D494D475D494D495E536DD14ED53ED3656
:10596000F5D5FDF7A30BB34D8DF68DF68DD68DF6DF
:105970008DF68DF7B61695F795D695F795F795F7B9
:1059800095F795F795F69DF69DF69DF6A5D67B2A9B
:10599000FEF7F6F8F717F717FEF7F737F717F717C9
:1059A000F6F7CD11D4F1CD11CCF1CCF1CCF1CCF195
:1059B000CCF1CCF1CCF1CCF1CCD1DDF4FF17FF3838
:1059C000FF38F738F737F737F737FF37C4F0D552D6
:1059D00061C3FF37F717B40CFF37F737FF17FF170F
:1059E000FF59FF59FF59FF38FF38FF38FF38FF389C
:1059F000FF38F737F737F737F738F738F718F7186A
:105A0000F738F738F738F737F737F6F7FF38FE3754
:105A1000ED95DD56E5B6DD56CCB4D4B6CC95D49430
:105A2000FDD7FDF6FDF6ED75FDD6FDD6ED35E4F5B9
:105A30008DF78DF695D695D69DF7CE36E5F79DB5C3
:105A400095D795F795F79DF795F795F695F69DF609
:105A50009DF69DF6A5D6F696F6F8F6F7F717F71722
:105A6000AC6DFF17F717FF17F717CD31D511CCF134
:105A7000CCF1CCF1CCF1CCF1CCF1CCF1CCF1CCF13E
:105A8000CCF1CCF1CD31FF38F717F718F737F737EE
:105A9000F737F737FF17C531CCD0FF58FF37934999
:105AA000FF37F737F737FF17FF38FF38FF58FF3852
:105AB000FF38FF38FF38FF38FF38F737F737F73749
:105AC000F718F738F718F738F738F738F718F737BF
:105AD000F737F6F7FF58F5F6E556E576CD36BD769D
